:020000022000DC
:1070000000000420D98C0300198D03001B8D0300A0
:107010001D8D03001F8D0300218D03000000000063
:10702000000000000000000000000000558C03007C
:10703000258D030000000000758C0300298D0300DE
:107040002D8F03002B8D03002B8D03005178020040
:10705000057902002B8D03002B8D03002B8D03007F
:107060002B8D03002B8D03002B8D03002B8D030034
:107070002B8D03002B8D03002B8D03002B8D030024
:107080002B8D0300A58903002B8D03002B8D03009E
:107090002B8D03002B8D0300A9B102002B8D030063
:1070A0002B8D03002B8D03002B8D03002B8D0300F4
:1070B0002B8D03002B8D030000000000000000005A
:1070C0002B8D03002B8D03002B8D03002B8D0300D4
:1070D0002B8D03002B8D03002B8D0300D5C40200E4
:1070E0002B8D03002B8D03002B8D0300000000006F
:1070F000000000002B8D0300000000002B8D03001A
:10710000000000000000000000000000000000007F
:10711000000000000000000000000000000000006F
:10712000000000000000000000000000000000005F
:10713000000000000000000000000000000000004F
:10714000000000000000000000000000000000003F
:10715000000000000000000000000000000000002F
:10716000000000000000000000000000000000001F
:10717000000000000000000000000000000000000F
:1071800000000000000000000000000000000000FF
:1071900000000000000000000000000000000000EF
:1071A00000000000000000000000000000000000DF
:1071B00000000000000000000000000000000000CF
:1071C00000000000000000000000000000000000BF
:1071D00000000000000000000000000000000000AF
:1071E000000000000000000000000000000000009F
:1071F000000000000000000000000000000000008F
:10720000F1EE103A43F08073E1EE103A704700BFA0
:1072100010B5054C237833B9044B13B10448AFF3D0
:1072200000800123237010BD606300200000000077
:107230009C4A040008B5034B1BB103490348AFF354
:10724000008008BD00000000646300209C4A040028
:10725000154B002B08BF134B9D46A3F5803A002128
:107260008B460F461348144A121A17F089FD0F4B2C
:10727000002B00D098470E4B002B00D098470020E1
:10728000002104000D000D48002802D00C48AFF387
:10729000008017F00BFD2000290011F075FD17F09C
:1072A000DFFC00BF00000800000004200000000018
:1072B00000000000606300204498002000000000EF
:1072C00000000000704700BF08B500210C2012F03C
:1072D00083F914200FF056FABDE8084001210C2074
:1072E00012F07AB970B52A4D2B7884B0A3B9294C25
:1072F0000FF03CFA2368C01AB0F57A7F0AD92B78D0
:1073000073B925486225412603F01CFFD0B90FF060
:107310002DFA206004B070BD204800F0D7FFE6E7EA
:107320001E4800F0C3FEFCEEC07A1C48CDED017A89
:107330009DF8046000F0BEFE0546174803F002FF0A
:107340000028E4D0164801F02BFED8B1022203A990
:1073500013488DF80C608DF80D5001F059FE11495D
:1073600011480EF0DBFF31460A220F480FF060F99A
:107370000E490D480EF0D2FF29460A220A480FF0A6
:107380005FF9C4E70A4908480FF026F8BFE700BFD5
:1073900094640020986400202C660020EC63002098
:1073A0007C630020141E0400A46E0020201E040034
:1073B000281E040010B501210B2012F089F80121CC
:1073C0000C2012F085F801210D2012F081F8012126
:1073D0000B2012F001F901210C2012F0FDF801211F
:1073E0000D2012F0F9F82A484FF4E13104F022FDA3
:1073F0002848002100F02AFE002832D1264B014601
:107400000B20197012F0E8F800220121234803F044
:10741000B1FC2349214803F043FE224803F0A4F9BC
:107420002148122101F09AFD112211461E4801F057
:10743000ABFD02211C4801F095FD1B4801F0A4FAA8
:1074400006211A4801F0A8F81649184801F060F81A
:10745000164801F073F8BDE810401448002101F00F
:1074600023B90D4B0B48012402211C7000F02AFEA9
:107470000F49084800F022FE00210C2012F0ACF861
:10748000C8200FF07FF921460C2012F0A5F8BBE7C9
:10749000A46E0020EC630020946400202C66002081
:1074A000581E0400D46300207C6300206C6C002014
:1074B000C972020010B5044B044640F8083B03F0C3
:1074C0008FF9204610BD00BF281F040070B5184E6C
:1074D000184D194C84B0304600F096FD174A1849F3
:1074E000304616F04BFC68464FF47F4103F080F9BC
:1074F0006946284603F054F9684603F071F90F4ACB
:107500001049284616F03AFC68464FF6017103F020
:107510006FF96946204601F0EBFC684603F060F91C
:10752000064A0949204616F029FC04B070BD00BF88
:10753000EC630020D46300207C6300200060002006
:10754000C5720200B5740200558902000020704720
:10755000704700BF20300FF0F1B800BF38B5437F4F
:107560000BB9002038BD00F1680420460D460FF02D
:10757000F3F80028F5D1204629460FF0BFF8012086
:1075800038BD00BF20300FF0CBB800BF20300FF067
:10759000DBB800BF2DE9F04F83B0019272B34C1EEF
:1075A000174F0546C1F1010604EB020800F1680A15
:1075B0002B681B68BB4206EB040B14F8019F17D124
:1075C0006B7F50461BB9584603B0BDE8F08F0FF0F3
:1075D000C3F8034649465046002BF4D10FF08EF80D
:1075E0004445E5D1DDF804B0584603B0BDE8F08F5E
:1075F0004946284698470028F2D1E4E79346E2E757
:107600005D75020030B4837E1F2B4FF0010288BFEE
:1076100003F01F03C27603F5E0738CBF244A4FF0DA
:10762000A04240F20C6142F82310437E02691F2BF6
:1076300086BF03F01F031E494FF0A04103F5E0731E
:1076400040F20C6441F823404FF0CC710623C2F89D
:107650002415C2F80035837EC2F8083590F9183039
:10766000417EC2F80C15002B1ADB124C5A0903F0AC
:107670001F05603201212344A940602544F82210EF
:1076800083F8005390F91830002B07DB094903F009
:107690001F0001225B09824041F8232030BC704763
:1076A000054A03F00F031A4460231376EAE700BF8C
:1076B0000003005000E100E0FCEC00E0C37E9BB161
:1076C0000B4A036991424FF00000C3F800050CD942
:1076D000084A914294BF4FF080614FF0C861062282
:1076E000C3F82415C3F8002570474FF0CC71F6E7B6
:1076F000A086010090D00300F8B514460AB91046E0
:10770000F8BD054600F1200738460E460FF004F894
:107710002B690122C3F888651A62C3F83475C3F86F
:1077200038451A6002E0D3F824211AB9D3F84C2165
:10773000002AF8D00022C3F84C2102E0D3F824211B
:107740001AB9D3F85C21002AF8D000210122C3F82D
:107750005C115A61D3F80421002AFBD00022C3F83F
:107760000421D3F8241109B1C3F82421D3F83C052E
:107770002866C0B2F8BD00BF10B5044680F8B0104E
:1077800068300EF0C9FF0123637710BDF8B50369B7
:107790000446002290F8B0006277012704F16806E1
:1077A000C3F88805C3F8042130461F62C3F8446556
:1077B0000D460EF0C3FF2369C3F848059F6002E041
:1077C000D3F824211AB9D3F85021002AF8D0002286
:1077D000C3F8502130460EF0B1FF236920BB0022D0
:1077E000C3F8602115B9D3F8242112B301225A61DC
:1077F000D3F80421002AFBD00022C3F80421D3F8D7
:10780000240160B10022C3F82421D3F8C404C3F8D2
:10781000C404022803D004280CBF03200420F8BDB0
:10782000D3F82421002ADAD1D3F86021002AF7D036
:10783000D5E70122DA61D3F84821002AFBD00022E3
:10784000C3F84821DBE700BF0121FFF79FBF00BF5E
:1078500070B52A4C6369D3F86421002A3CD1D3F86F
:107860006821F2B9D3F8042122B1227F0021C3F8A4
:10787000041162B9D3F8242142B10022C3F82421B3
:10788000D3F8D024C3F8D02401225A6170BDD4F8B3
:10789000B820D3F83C052066002AEBD090476369F6
:1078A000E8E70022C3F8682115484FF48073A383EA
:1078B0000EF032FFD4F8B43003B198476369104832
:1078C000C3F84405002363770EF038FF6369012293
:1078D000C3F848055A63C5E7002204F12006C3F83F
:1078E00064210125304625770EF016FF636940229A
:1078F000C3F83465C3F838251D63B0E79C640020E5
:107900000465002070B52A4C6369D3F86421002A0D
:107910003CD1D3F86821F2B9D3F8042122B1227FF7
:107920000021C3F8041162B9D3F8242142B1002226
:10793000C3F82421D3F8D024C3F8D02401225A61FB
:1079400070BDD4F8B820D3F83C052066002AEBD0EF
:1079500090476369E8E70022C3F8682115484FF4AF
:107960008073A3830EF0D8FED4F8B43003B19847E7
:1079700063691048C3F84405002363770EF0DEFE08
:1079800063690122C3F848055A63C5E7002204F180
:107990002006C3F864210125304625770EF0BCFE91
:1079A00063694022C3F83465C3F838251D63B0E726
:1079B00058650020C06500202DE9F8431A4DDFF816
:1079C00078901A4C1A4F284600264FF47A7840F8DF
:1079D000209BC5E901680EF085FE05F168000EF0F8
:1079E00081FE032320462B763B696B76114B7A6927
:1079F00040F8209BC5E90433AA76C4E901686E7794
:107A00000EF070FE04F168000EF06CFED7E9102154
:107A100004204FF04023C4E9043366772076617672
:107A2000A276BDE8F88300BF9C6400205865002062
:107A3000EC24040000300040741E04000022C0E961
:107A40001000A0F848207047B0F84830A3B170B4D7
:107A5000446C251F854226884564648838BF00F140
:107A60003C0503F1FF3338BF4564A0F848300E8071
:107A70000120148070BC70471846704738B5094C17
:107A80000D4620465721FFF777FE20460621FFF7D7
:107A900065FD29462046FFF761FD2046BDE83840D8
:107AA000FFF7D2BE9C64002070B50B4D0C462846F3
:107AB00057211646FFF760FE28460921FFF74EFDC5
:107AC00044EA06112846C9B2FFF748FD2846BDE83A
:107AD0007040FFF7B9BE00BF9C64002010B5594844
:107AE000FFF790FD58495748FFF7E8FD55485721E3
:107AF000FFF742FEFF215348FFF730FD00215148B8
:107B0000FFF744FE012257214E48FFF7F5FD4D488F
:107B1000FFF738FDC0B2112801D0002010BD494840
:107B20005721FFF729FE06214648FFF717FD0221DE
:107B30004448FFF713FD4348FFF786FE41485721AD
:107B4000FFF71AFE07213F48FFF708FD00213D48D7
:107B5000FFF71CFE012257213A48FFF7CDFD3948B7
:107B6000FFF710FD572104463648FFF705FE0721B1
:107B70003448FFF7F3FC44F00301C9B23148FFF782
:107B8000EDFC3048FFF760FE2E485721FFF7F4FD6B
:107B900007212C48FFF7E2FC00212A48FFF7F6FDF9
:107BA000012257212748FFF7A7FD2648FFF7EAFCE7
:107BB000572104462348FFF7DFFD07212148FFF73F
:107BC000CDFC04F0E30141F004011E48FFF7C6FCC0
:107BD0001C48FFF739FE1B485721FFF7CDFD09214F
:107BE0001848FFF7BBFCFF211648FFF7B7FC154804
:107BF000FFF72AFE13485721FFF7BEFD0721114862
:107C0000FFF7ACFC00210F48FFF7C0FD0122572110
:107C10000C48FFF771FD0B48FFF7B4FC57210446F1
:107C20000848FFF7A9FD07210648FFF797FC44F035
:107C30004001C9B20348FFF791FC0248FFF704FE78
:107C4000012010BD9C640020801A06002DE9F0413F
:107C5000572190B004464348FFF78EFD022141486A
:107C6000FFF77CFC00213F48FFF790FD01225721E0
:107C70003C48FFF741FD3B48FFF784FC5721054690
:107C80003848FFF779FD04213648FFF767FC0021EB
:107C90003448FFF77BFD012257213248FFF72CFDC6
:107CA0003048FFF76FFC281A10F00F0502D110B012
:107CB000BDE8F0812B4857210746FFF75DFD052100
:107CC0003846FFF74BFC00213846FFF75FFDAA005E
:107CD00057213846FFF710FD002607E0FFF752FC5A
:107CE00010AB53FA86F3464603F8400C3846FFF7CC
:107CF00031FC034606F101083846002BEED1681E20
:107D000001AAC0B202EB8005636C04F140076A4629
:107D100006E0A4F8480001B923640432AA421DD049
:107D200092F800C050789678D1780433BB4208BFEF
:107D3000234640EA0C2041EA062118805980B4F815
:107D40004810102901F10100E3D1216C0432043103
:107D5000B94208BF2146AA422164E1D1636410B050
:107D6000BDE8F0819C640020FFF770BF10B4054CA3
:107D70004460002200215DF8044B017001618260C3
:107D8000C26070470000A0412DE9D04303782DED7B
:107D9000028B0446042B04D8DFE803F0587E616CA4
:107DA00008000020BDEC028BBDE8D0830EF0DEFCA5
:107DB000236994ED038AC01AC82888BF0123B5EE51
:107DC000C08A88BF2370F1EE10FA40F38380D4EDAF
:107DD000028AF5EEC08AF1EE10FA7BDD606816F0DB
:107DE000C3FA064618EE100A0F4616F0BDFA74A341
:107DF000D3E9002316F010FBDFED777A68EEA77A5F
:107E00008046894617EE900A16F0AEFA02460B46F7
:107E10004046494616F02AFC02460B463046394693
:107E200016F042F916F00AFD07EE900AB3EE047A56
:107E3000F4EEC77AF1EE10FAC4ED017AB1D5BDECDB
:107E4000028B664B63600020BDE8D0830EF08EFC91
:107E5000B0F5FA6FA5D9012323700020A2E7D0ED79
:107E6000017AB4EEE70AF1EE10FA63D5032303704A
:107E7000002097E7F3EE0E7A70EE277A90ED017A04
:107E8000F4EEC77AF1EE10FA61D4BDEC028B022356
:107E900003700020BDE8D083D0ED017AB4EEE70A8C
:107EA000F1EE10FA0CDDDFED4E7AB4EEE70AF1EEFA
:107EB00010FA88BFB0EE670A022380ED010A037052
:107EC0000EF054FC2369C01AB0F5FA6F0FD90023E5
:107ED000A360E360606816F047FA37A3D3E9002394
:107EE00016F09AFA16F0AAFC07EE900A9EE7D4ED77
:107EF000038AF5EEC08AF1EE10FAEBDD94ED028A0A
:107F0000B5EEC08AF1EE10FAE4DD606816F02CFAE6
:107F1000064618EE900A0F4616F026FA28A3D3E973
:107F2000002316F079FADFED2C7A804668EE277A86
:107F3000894667E7DFED2A7AB4EEE70AF1EE10FA38
:107F400088BFB0EE670A80ED010A00202AE704230B
:107F5000037080ED030A0EF009FC2369C01A07EED6
:107F6000900AB8EE678AB5EE408AF1EE10FA1BD09F
:107F7000A06816F0F9F914A3D3E9002316F04CFA1F
:107F8000064618EE100A0F4616F0EEF910A3D3E9D4
:107F9000002316F041FA02460B463046394616F0E9
:107FA00085F816F04BFCA0600EF0E0FB206101208C
:107FB000F8E600BFAFF30080AE47E17A14AEEF3FC2
:107FC000666666666666E63F9A9999999999D93F79
:107FD000333333333333E33FCDCCCC3D0000A041CA
:107FE0000000484490ED020AB5EE400AF1EE10FAA6
:107FF0001CBFDFED027A87EE800A704700606A4797
:1080000090ED010A704700BF38B500250446C0E96D
:108010000155C0E9035505701430FFF7A7FE002392
:1080200040F60872A4F84020A362E362236363630E
:10803000A36304F1440000F09FF904F15800FFF736
:10804000FDFCC4F8A450204638BD00BF70B500F157
:108050005806417004463046FFF740FD054618B902
:108060006378B3B9284670BD30460321FFF706FD9B
:1080700094F8402094F841103046FFF715FD084A67
:10808000A262002301212263E36263632170284618
:1080900070BD044904480EF09FF9284670BD00BF2A
:1080A0003333733F901E0400A46E00201430FFF79A
:1080B00099BF00BF443000F0E7B900BFC0F8A4107A
:1080C000704700BF90F8402080F841105830FFF70B
:1080D000EBBC00BF000000002DE9F04F0FF2D819F3
:1080E000D9E900892DED068B00F1580ADFF8D8B1E7
:1080F00049EC1A8B83B00446D1460DF1060201A962
:108100004846FFF7A1FC00286ED0BDF8043094ED7E
:108110000A6A94ED0B8AD4ED0D8AD4ED0C6A94EDC5
:108120000F9A07EE903ABDF8063084ED0E9A07EEEE
:10813000103AF8EE677AB8EE477AE6EE087A04F17C
:10814000140AA6EEA87A78EE676A84ED0D7A16EE28
:10815000900AC4ED0B7A77EE688A37EEC88A16F07B
:1081600003F953EC1A2B16F057F9064619EE100ACC
:108170000F4616F0F9F852A3D3E9002316F04CF994
:1081800002460B463046394615F090FF16F056FB76
:1081900007EE900A39EE279AE063B0EE490A50469E
:1081A000FFF7F2FD06465046FFF71CFFB5EEC00A8A
:1081B000F1EE10FA32DC2378022B72D06578022DB2
:1081C0003AD0032D4DD0012D13D0002E95D0D4F8E8
:1081D000A430002B91D098470DF1060201A9484622
:1081E000FFF732FC002890D103B0BDEC068BBDE850
:1081F000F08F59462E480EF091F8BDF804102C4827
:108200000A220EF04DFA2B4929480EF087F8BDF8E6
:10821000061027480A220EF0E5F9D6E72046022389
:1082200000F8443B3146F0EE680AB0EE480A00F030
:10823000ABF86578022DC4D159461D480EF06EF892
:1082400018EE100A16F090F841EC100B2946184869
:108250000EF092F8174916480EF060F818EE900AE2
:1082600016E0594612480EF059F819EE100A16F0A9
:108270007BF841EC100B02210D480EF07DF80D4902
:108280000B480EF04BF85046FFF7BAFE10EE100AFE
:1082900016F06AF841EC100B022105480EF0ECF8DC
:1082A00093E72046012300F8443B00F0E5F885E71A
:1082B000A46E0020B81E040048457C5EEF63CF3FEB
:1082C0005CDDC150084EE03FB41E040038B500F13B
:1082D000580504462846FFF747FD2046FFF7FCFEF9
:1082E0000EF044FAE368C01AB0F5FA7F3CD994ED79
:1082F0000B7AD4ED0D7ADFED1D6A37EE676AB4EEC6
:10830000E66AF1EE10FA08DD94F840200E2A04D84F
:108310000132D2B284F840200FE077EEC77A9FEDA9
:10832000137AF4EEC77AF1EE10FA1ADD94F84020D1
:10833000BAB1013AD2B284F8402094F841102846EC
:10834000FFF7B2FB0EF012FA637820614BB10849D7
:1083500008480DF0E3FF94F8401006480A220EF09A
:108360006FF90EF003FAE06038BD00BF00B888472F
:10837000BC1E0400A46E00200022002101604160A8
:108380000272C26002747047F8B5D0ED017AC3681A
:108390002DED028BD0ED008AE0EEA07A0133C360B0
:1083A000E0EE008AC0ED017AC0ED008A31B1027AB8
:1083B0000132D2B2032A0446027202D0BDEC028B13
:1083C000F8BD07EE103AB8EE478A87EE880A15F036
:1083D000DBFCF0EE407A88EE880A17EE905A15F032
:1083E000D3FC284610EE105A15F0BEFF1E4B00229B
:1083F00016F012F8064628460F4615F0B5FF02465D
:108400000B463046394616F031F916F017FA9FED53
:10841000177A07EE900AF4EEC77AF1EE10FA11DD42
:10842000FCEEE77A124A17EE903A423BDBB2D35C9D
:10843000237400232372BDEC028B00226260226051
:10844000E360F8BD9FED0B7AF4EEC77AF1EE10FA17
:1084500008DDFCEEE77A064A17EE903A323BDBB2D3
:10846000D35CE5E76423E3E7000059400000844261
:10847000C01E04000000484200230022C3600372B3
:108480000374426002607047007C704772DF70477F
:1084900073DF704777DF704738B5054608460C46EE
:1084A00002F0B4F9102803D080280ED0012038BD86
:1084B000EB7FA2881B2B0EDCE9180320E8544870E0
:1084C0004A80EB7F0433EB77F0E7A368002BEDD015
:1084D000E97F0D2901DD002038BD6A18112068549C
:1084E0000721517058681C689968DB68C2F80E3023
:1084F000C2F80600C2F80240C2F80A10EB7F12333D
:10850000EB77012038BD00BF0022C27702707047B0
:1085100030B5D1E9042485B0CD68074B0093694696
:10852000CDE902240195FFF7B7FF0446684602F043
:1085300057F9204605B030BD401F0400F0B589B0A2
:10854000064620221348694602F0BEFDF37FC2189A
:108550001D2A0CDDC3F11D04E4B2E2181D2A4FF000
:108560000005D8BF082705DD284609B0F0BD044640
:1085700001250927F218601CF05469465770901CB9
:10858000224616F0D5FBF27F023214442846F477D7
:1085900009B0F0BD2C660020C27F1C2A01DD00203E
:1085A000704710B403469C18022098540120A17013
:1085B0006070DA7F0332DA775DF8044B704700BFF2
:1085C00010B4084A084C094902620022C0E90A4175
:1085D000C0E90C225DF8044B0270C27742628263EC
:1085E000704700BFFF0101002000F40020001E00C2
:1085F000F0B5154605EB8503274A89B0044603EB21
:10860000830300200E469B0011680290CDE90460B0
:10861000ADF8143094F821308DF80830CB07CDE94F
:108620000600039009D41D491D4BC87FE77F988140
:1086300001201C6099609F801060194902AA04F112
:108640002000FFF723FF10B1002009B0F0BD94F81F
:1086500020101448019102F04BFD019902460120BF
:10866000FFF718FF0028EFD194F820000121FFF751
:108670000FFF0028E8D10B4802F0A6FD628EA68508
:1086800095424FF0010094BF521B921A628684F803
:10869000230009B0F0BD00BF14660020A86C0020C4
:1086A000186600202C660020F0B5002361F30F034C
:1086B0002D4D044661F31F4389B00363FA21284618
:1086C00002F01AFDE68D2949278D0868049706EB0C
:1086D000860303EB830300229B000592ADF8143060
:1086E00094F8213002928DF80830C307CDE90622B4
:1086F00003920BD41E4BE27F95F89B069A8005F2FD
:108700007C6501221C609D6098810A60184902AA5C
:1087100004F12000FFF7BAFE10B1002009B0F0BD4F
:1087200094F820101048019102F0E2FC01990246F1
:108730000120FFF7AFFE0028EFD194F820000121BF
:10874000FFF7A6FE0028E8D1074802F03DFD638E42
:10875000A7859E424FF0010094BF9B1BDB1A6386E6
:1087600084F8230009B0F0BD2C66002014660020B8
:108770001866002030B50B888D88112B85B0044613
:1087800005D0262B33D0102B25D005B030BD436A41
:10879000EB40DB07F9D52E4801F0EEF80028F4D1C4
:1087A000636A94F82310012202FA05F523EA05030F
:1087B00063620029E9D194F82230002BE5D0238EA2
:1087C00023486386FA2102F097FCE28D218D204632
:1087D000FFF70EFFD9E7CB7B012BD6D1426A03FA14
:1087E00005F515430023456280F82330CDE70B7A69
:1087F000012BCAD1002380F823304FF4FA711448BA
:1088000002F07AFC238E5BB1658E95B1A36B0BB140
:108810009847658E618D2A462046FFF7E9FEB4E74A
:10882000A36B03B19847618D00222046FFF7E0FE5D
:10883000ABE7074802F0DCFC626B002AA5D000958C
:1088400003AB29462846039510F07EFD9DE700BF47
:108850002C66002075DF704710B44FF010144FF4F1
:1088600048010022C0E90041C0E902225DF8044B42
:10887000704700BF014800F085BE00BF1C6D00209E
:10888000F8B500250D4F2E4601E0142D14D0A9B2E5
:10889000384602F081FC013504460028F5D000F08E
:1088A0001FFD0028F1D0204600F024FD022804BF5F
:1088B0000136F6B2142DEAD13046F8BD2C66002000
:1088C00070B58E881B480C4694B0314602F064FCAB
:1088D00023881A2B05D01F2B1CD0102B0FD014B0BF
:1088E00070BD054600F0FEFC0028F8D0284600F0D8
:1088F000FBFC0028F3D1284600F05CFDEFE7694659
:1089000000F040FD0028EAD06A4631460A4801F0EE
:10891000C7FBE4E754F8080F61686B4603C33046B1
:10892000BDF80030ADF802306946FFF793FF14B090
:1089300070BD00BF2C6600204C660020AADF704787
:10894000ABDF7047ACDF7047ADDF7047AEDF70471D
:10895000B0DF704710B5044B044640F8043B01F00B
:108960003FFF204610BD00BFF81E040010B5054BA8
:10897000044640F8043B01F033FF204610F046FA6D
:10898000204610BDF81E040070B57B4B04461B68E2
:10899000836196B0043001F049FF94F82E30A0694D
:1089A00013F0320208BF84F82F2013F00C0308BF25
:1089B00084F830300DF10102694601F007FF94F8A8
:1089C0002F209DF8010015070DD09DF8001002F032
:1089D0000F0301F00F059D424FEA12126DD243EAD8
:1089E000021284F82F2094F8303019070BD003F0CE
:1089F0000F0100F00F058D424FEA131369D241EACF
:108A0000031384F8303094F82E1011F0300340F046
:108A100096800FAD0F93C5E90133C5E903338DF897
:108A20003C10AB610021ADF809109DF80A10206AD6
:108A30001493012363F342018DF808208DF80A1086
:108A400008B1037873BB94F8263013B104F1260300
:108A5000129394F831200023D2070893079358BF4C
:108A6000E38AADF81C3004F1080004F12F01CDE9D0
:108A7000050154BF1846E08AADF82000294604F1EC
:108A80003203E569099505AA0020FFF757FF05465F
:108A900028B994F8253043BB237D002B64D02846A9
:108AA00016B070BD109017F07AF802AB80B2ADF836
:108AB0004400ADF846001393C5E74FEA111101D108
:108AC00091428CD30A462B4643EA021284F82F20A7
:108AD00089E74FEA101001D1984290D30346294606
:108AE00041EA031384F830308DE7ADF80D009DF8AE
:108AF0000E2094F82F600C90012363F3420242F69B
:108B000008118DF80E208DF8123004AA0223ADF85A
:108B1000101003A90D90ADF83030ADF834300A9242
:108B200004F124030B910DF102020AA98DF80C60E7
:108B30000E93FFF705FF0028AED00546AFE70F4BB9
:108B40008DF805200FAD1B788DF80430022000232E
:108B50000F938DF80600C5E90133C5E90333AB6116
:108B60008DF83C1001AB5DE72146054800F0C6FEDC
:108B7000284616B070BD00BF28660020EC1E040019
:108B80006C6A00202DE9F0410B888E88502B8AB04A
:108B90000C46054609D0512B04D18B79012B19D0F5
:108BA000022B26D00AB0BDE8F081CB88428E9A42D3
:108BB00035D0EA8E9A42F5D16B6D002BF2D095F844
:108BC0004420648A920700F18A8022462946304672
:108BD0009847E7E7836C002BE4D090F844205207D5
:108BE00001F108076CD43A46294630469847A379E4
:108BF000D6E7A27B042A46D0062A20D0012AD1D16A
:108C0000EB6C002BCED095F84420170704F1080434
:108C100000F1A5802246294630469847C2E7076DF5
:108C2000002FC6D090F84430D90768D404F1120858
:108C3000238A424629463046B847E388B9E7EA6BBB
:108C4000002AAFD0002202A93046CDE90222CDE9A8
:108C50000422ADF80C208DF80830FFF779FE2C6D5A
:108C600054B195F84430D80700F19280B5F84230FD
:108C7000EA6B30462946A047E86B0DF0B9FD0023AA
:108C8000C5E90F338EE7E86B002878D0B5F84010BF
:108C9000278A628A07EB020C00234FF0020E8C45F4
:108CA000CDE90633CDE908338DF818E039DD40F21F
:108CB0000913ADF81C3006A93046FFF749FE71E7ED
:108CC00003211A46009106AB08213846CDE9066516
:108CD000089710F039FB002889D1AB6C83E703209B
:108CE00000211A46009006AB0846CDE906650894B7
:108CF00010F02AFB00287FF455AF6B6D65E7218AE1
:108D0000069604F11208042300933A46404606AB47
:108D1000CDE90881079510F017FB00288DD12F6D44
:108D200086E79DF81EC0ADF81C3004F114014CF02C
:108D300001033844ADF822208DF81E300991ADF8BA
:108D4000207015F0F5FF238A618AB5F842200B44A4
:108D50009BB2934238BF1346A5F84230ABE70321DC
:108D60001A46009106AB0E212046CDE9066508940F
:108D700010F0EAFA00287FF415AFEB6C4AE74FF4E5
:108D800080600DF01BFD4FF48061C5E90F017FE7A6
:108D9000E86BB5F84210069604230093224606AB12
:108DA000CDE90750099110F0CFFA00287FF464AFA5
:108DB0002C6D5BE72DE9F04F0F464FF6FF718F42A8
:108DC00089B0064615461C4626D0F18A96F82E3004
:108DD0008C4228BF0C46DB0615D40DF1100B8C42DB
:108DE00028BF0C464FF00008718EADF810405A466F
:108DF0004FF6FF700595ADF81280FFF7A3FD4046D2
:108E000009B0BDE8F08F3948394602F0ADF908B134
:108E1000F18E31B9F18AE0E7344802F0B1F9074642
:108E2000D3E7002002230DF1100BADF81200ADF8CE
:108E300010305A460DF10E0338460593FFF784FDB6
:108E400043F2014398424FD000284AD19DF80E804A
:108E500008F00108B8F1000F46D02448394602F066
:108E60009BF98246A0B300F047FA033883B2002C86
:108E7000C5D0CDF804804FF00009984605E0BDF854
:108E80000E30E41AA4B21D4444B3504600F048FA30
:108E9000A04503464246594628BF22463846BBB144
:108EA000ADF80E204FF00102738E8DF812200DF1F7
:108EB0000E02CDE90625CDF813908DF81790ADF888
:108EC0001030FFF743FD0028D9D0504600F032FAA9
:108ED0004FF00008404609B0BDE8F08FDDF804808F
:108EE0008DE700F00108B5E7F18A78E72C660020ED
:108EF00070B44E68164A86600260D1E90262154B72
:108F0000154D1C7845600261142500220321C0E93B
:108F10000F22C0E91222C0E91422C660C58280F87F
:108F2000311080F844200275826102628284C0F8A8
:108F30002620C0F82A2080F82E20C2614286426393
:108F4000028780F82F4080F8304070BC704700BF27
:108F5000F81E0400EC1E0400401F040080F82E10D0
:108F6000704700BF41B190F83130C182002262F3F6
:108F7000000380F83130704790F83130012262F3FD
:108F8000000380F83130704780F82F1080F83020CF
:108F9000704700BF51F8322F026049684160704746
:108FA00030B5044685B0194802F0EAF894F82E303E
:108FB00013F0100302D1184605B030BD0546014636
:108FC000124802F0D1F80028F6D0E18E11B9084617
:108FD00005B030BD0DF1060328460024022502AA83
:108FE0000393ADF80A40ADF80850FFF7ADFC43F22B
:108FF0000143984205D030B99DF8063003F00100D6
:10900000DAE72046D8E700F00100D5E72C6600201B
:1090100010B490F82E4014F0100407D013465DF8F9
:10902000044B0A464FF6FF71FFF7C4BE20465DF8B9
:10903000044B7047A1DF7047A3DF7047A4DF704780
:1090400000238383704700BF006A00F0E3B800BFCD
:10905000808B70472DE9F0410B88CE88382B86B085
:109060000C46054606D0392B66D0362B43D006B0C9
:10907000BDE8F08100F12407002E36D10A8A384677
:10908000314602F047F994F80C80B8F1010F2CD06A
:10909000B8F1040FEBD1286A00F0BCF801465C4837
:1090A00002F07AF800F028F92A8E053883B293424C
:1090B00028BF1346002B00F09A80218AE289286A93
:1090C000AC8B8DF80D600A44E96A05918DF80C802F
:1090D000ADF81230ADF81020ADF80E4000F09AF85F
:1090E00003A9FFF7A9FF0028C1D0384602F02AF9EA
:1090F00006B0BDE8F081006A00F08CF801464448F3
:1091000002F04AF800F0F8F807466EBB05F12406B5
:10911000E289304604F1100102F0FCF82B8E2BB1ED
:10912000F81EE38980B20138834255DA304602F0F6
:1091300009F906B0BDE8F0810B7B012B1AD0022B98
:1091400095D1836B002B92D090F83C208F889207AA
:109150001FD401F11006E2893146284698476189FB
:109160003846FFF76BFF82E705F12407384602F027
:10917000E9F8BDE7436B002B3FF479AF90F83C2052
:10918000D10717D404F11006E289314628469847E2
:109190006DE7C989039004F1100603201A46009078
:1091A00003AB3046CDE9046110F0CEF80028D6D1EB
:1091B000AB6BD0E7E189039004F1100603201A4657
:1091C000009003AB3046CDE9046110F0BDF80028F3
:1091D0007FF44DAF6B6BD7E7286A00F01BF86A8EFF
:1091E000A98B92B2FFF726FF00289FD13FE7AA8BF9
:1091F000286AADF80E2040F20511ADF80C10CDE94B
:10920000043300F007F803A9FFF716FF6DE700BF6E
:109210002C660020808870478FDF704790DF704792
:10922000B1DF7047B5DF704710B5074B03600446E8
:10923000806A0EF025F9E06A0EF022F9206B08B181
:109240000EF01EF9204610BD101F040010B5094B8A
:1092500003600446806A0EF013F9E06A0EF010F91C
:10926000206B08B10EF00CF920460FF0CFFD204620
:1092700010BD00BF101F040070B504460D4692E8F3
:109280000300A5800E0CA061A183144DA6771720C2
:109290001B2156892560E0809589D089E181D179AB
:1092A0006581012222752274A081617418461946D5
:1092B00026819DF810500DF045FB2946A0622846F6
:1092C0000DF040FB4FF4885100234FF6FF72E1820E
:1092D000E062628223636375204670BD101F040044
:1092E000007D7047407D7047C07D113818BF012058
:1092F000704700BF407C7047C08870470089704746
:109300004B7D10B44BB11F310C688A888B79046097
:1093100082805DF8044B837170471831F4E700BF19
:1093200008B56621806A0DF02FFF003818BF0120B4
:1093300008BD00BF08B500231A461946806A0DF023
:1093400033FB003818BF012008BD00BF818800F141
:109350001F02407C02F03CB838B50A4605460C4670
:109360008188407C02F020F82146012051F8483FD6
:10937000C5F81F308B888A7985F82520A5F8233019
:10938000687538BD38B50A4604460D4600F1180127
:10939000407C02F053F8607550B1294651F8483FBF
:1093A000C4F81F308B888A7984F82520A4F82330EC
:1093B00038BD00BF10B5447D24B100F11F01407CD1
:1093C00002F01AF8204610BD70B50B88113B82B030
:1093D0000C460546462B2BD8DFE803F0383B2A2AFB
:1093E0002A2A2A2A2A422A2A2A2A2A2A50585E6403
:1093F0002A2A2A2A2A2A2A2A2A2A2A2A2A2A2A2ACD
:109400002A2A2A2A2A672A942A2A2A2A2A2A2A2A15
:109410002A2A2A2A2A2A2A2A2A2A2A2A2A246A2A72
:10942000752C84000023A8881A461946FFF7F8FE19
:1094300002B070BD8B79002BFAD1006BAB750028A0
:10944000F6D01A4619460DF0AFFAF1E7002303757E
:10945000EEE74B8903818B894381CB898381E7E7E1
:109460000B7AC375112BE3D0818800F11F02407C79
:1094700002F09CF803460028DAD1D4E7002301A9C2
:109480008088ADF80430FFF7C7FED1E70B7A002BD8
:10949000CED14B7A0374CBE7002211468088FFF7C8
:1094A000BDFEC5E70B89C381C2E74B89C380BFE717
:1094B000006B0123AB750028BAD000231A46194669
:1094C0000DF072FAB4E7417C164801F05DFEE388C6
:1094D0000146994228BF194689B2A888E980FFF75A
:1094E000A1FEA5E78B79002BA2D0002600231A4607
:1094F0001946A86A0DF058FA0136A279F3B29A42D9
:10950000F4D895E78B7A002B92D0002600231A46D8
:109510001946E86A0DF048FA0136A27AF3B29A4287
:10952000F4D885E72C66002070B58AB086880B4693
:1095300006A84FF42851144605934FF6FF7501F025
:1095400057F90120CDE90105059B0094314606AA93
:10955000044800F06FF8044606A801F041F92046DF
:109560000AB070BD6C6A002010B50446043001F0EA
:109570006DFE034B236000232375204610BD00BF02
:109580000100FFFF017D01B1704710B504460430B2
:1095900001F066FE0123237510BD00BF007D7047FA
:1095A0000B88322B10B504D0332B17D0302B08D0BA
:1095B00010BDCB88DBB1041D2046BDE8104001F092
:1095C000C1BECB88041D002BF6D14B89002BF3D0F4
:1095D0000A3120460A2201F09DFEEDE7CB88002BE0
:1095E000E9D14A89002AE6D002EB420204E04A8926
:1095F000002AE0D002EB82025200041D023292B235
:109600000A31204601F086FED6E700BFA0DF704792
:1096100010B5044600F5F87001F018FE2046F82257
:10962000002115F0ADFBF822A018002115F0A8FBD1
:10963000204610BD2DE9F04782B00546BDF82C60EC
:10964000BDF830402048ADF80460BDF828A0ADF862
:109650000640904699460F4601F09EFD05F5F875C7
:10966000064603E0FFF74AFE0DF08CF8284601F0AD
:109670004FFE04463046002CF4D10121284601F06B
:10968000EFFD52464946284601F006FE08F1040166
:10969000384601AAFFF7BAFF30B1284601F0EAFDCB
:1096A000204602B0BDE8F0874FF4FA71284601F079
:1096B000F9FD20EAE074284601F0DCFDA4B2204662
:1096C00002B0BDE8F08700BF2C6600202DE9F04F06
:1096D0008F880D8885B0884604463946864801F053
:1096E0005BFDA5F11003012B814640F2908094F8B8
:1096F00054203AB3002633461633502D54F823A095
:1097000069D0512D1AD198F80630B8F808B0022B5C
:1097100053D0BBF1000F11D051466846FFF73AFC19
:10972000BDF800305B4559D0514602A8FFF732FC26
:10973000BDF80C305B4551D094F854200136F3B29B
:109740009342D9D394F84C31002B00F0D18004F52A
:10975000A679002604E094F84C310136B34220DDAE
:1097600059F8040FFFF770FCB842F4D1382D03D03C
:10977000392D01D0362DEED1B8F80AA0BAF1000F7C
:10978000E9D0D9F800B05846FFF762FC5045E2D165
:1097900058464146FFF75EFC94F84C310136B3421F
:1097A000DEDC112D55D0352D04D1B8F80A30002B50
:1097B00040F08F8005B0BDE8F08F98F80E30062B92
:1097C000A7D1DAF800305046DB6841469847484652
:1097D000FFF78AFDB0E7B8F806B09AE7DAF800308C
:1097E0005046DB68414698474846FFF77DFD002814
:1097F000A2D0502DA0D1514602A8FFF7CBFBBDF857
:109800000C305B4598D14846FFF7A0FD94E72378DC
:10981000002B3FF46CAF0026112D33460CD004EB27
:1098200083033946586803685B6898470136227895
:10983000F3B29A42F3D85AE704EB830339465868E7
:1098400003681B68984701362278F3B29A42F3D82E
:109850004DE7D3B10026334605E094F84C2101369C
:10986000F3B29A4211D904EB8305D5F85001FFF702
:10987000EBFBB842F1D1D5F85001FFF7E1FB01361F
:1098800094F84C21F3B29A42EDD894F8F820002ACB
:1098900090D000252B4604EB8303D3F8FC0083888B
:1098A000BB420AD00135EBB2934283D204EB83036F
:1098B000D3F8FC008388BB42F4D103681B68984747
:1098C000013594F8F820EBB29342E4D305B0BDE83B
:1098D000F08F04F5F874B8F80C20204608F1100158
:1098E00001F018FD204605B0BDE8F04F01F02ABD9B
:1098F000112D7FF458AFC8E72C66002090F8542053
:10990000272A0CD810B4034602F11604013280F85D
:10991000542043F8241001205DF8044B70470020C8
:10992000704700BF0378132B06D800EB8302013386
:1099300003700120516070470020704778DF704746
:109940007ADF7047054A034692E80300002283E865
:109950000300C3E902221846704700BF181F040025
:1099600008B5FFF7EDFF08B1002008BDFFF7E6FFDF
:10997000B0FA80F0400908BDF8B500250D4F2E461D
:1099800001E0142D14D0A9B2384601F005FC0135D0
:1099900004460028F5D0FFF7A3FC0028F1D02046AC
:1099A000FFF7A8FC012804BF0136F6B2142DEAD156
:1099B0003046F8BD2C660020704700BF8ADF704734
:1099C00030B40D4CC4621F25002250248584A0258C
:1099D000C0E91122C0E90F22A0F84650A0F8484083
:1099E000006230BC8262028680F838204263C26422
:1099F000A0F85020704700BF000180002DE9F04F13
:109A000010468DB016460C4600F000FFC5B2102D72
:109A10004FD0B66807220623A16994F81C900191E3
:109A20008DF80D208DF80C30ED080DF10C080DF1BE
:109A30000E0A0027B9F1010F0A97CDE90477CDE9A5
:109A40000677CDE90877CDF82B700ED998F800008D
:109A500001994B464A7882420FD00A78D443234476
:109A6000013213F0FF031144F4D108F10108C2459B
:109A7000E0D100200DB0BDE8F08F11F8024B013CA1
:109A8000E4B2224604A815F053F90DF1100B1CB9ED
:109A9000EBE714F0FF04E8D058462A46314615F0AB
:109AA00039F9641BAB440028F3D101200DB0BDE8A7
:109AB000F08F043603220223AEE700BF2DE9F04306
:109AC0000B888E88103B87B00D4604460D2B2CD892
:109AD000DFE803F077072B2B2B2B2B2B2B2B2B8447
:109AE0002B2E836AF340DB071FD55648FEF7C8FECE
:109AF000D8B9A36A94F82C20012505FA06F623EAC2
:109B00000606A6628AB994F82D3073B11F23246229
:109B1000A38404F1200104F14400FFF74FFF20B9B2
:109B2000494801F051FB84F82C5007B0BDE8F083A0
:109B300090F92E2091F91B309A423ADC90F8383097
:109B400001F108080BB3DFF80491002602E0D6B259
:109B5000B34218D9636BCDF8089003EB061302AA41
:109B600059680391D3E9027341462046059304974F
:109B7000FFF744FF074602A800F032FE94F83830A1
:109B8000721C002FE3D09E4213D094F82F30002B8C
:109B900049D095F82430012B0BD9296A4A78FF2A3D
:109BA00030D00A78D0430344013213F0FF0311444C
:109BB000F4D104F120010020FFF700FF07B0BDE859
:109BC000F083CB7B022BB0D1836A012202FA06F626
:109BD00033430022836280F82C20A6E70B7A012B06
:109BE000A3D1002580F82C50174801F001FB226C0E
:109BF000002A9AD0009502AB2946284602950FF01C
:109C0000A3FB92E711F8025B6A1ED2B2022A28BFB8
:109C1000022202A815F08CF8012DCAD0228EBDF8C0
:109C200008309A42C5D1E26B002A3FF47EAF01238F
:109C30000093404602AB2421CDF808800FF084FB4E
:109C400073E700BF3C6600202C660020401F040024
:109C500046DF70477FDF704780DF704781DF7047E6
:109C600085DF704786DF704738B51C460D460346D2
:109C7000114628462246984734B10146002228461C
:109C8000BDE83840FFF7E8BF38BD00BF10B50C464F
:109C900082B003466946204698476A46204601211D
:109CA000FFF7DAFF02B010BD10B50446083001F02E
:109CB000A7FE074B2360032200232271C4F810344F
:109CC000C4F81434C4F81834C4F81C34204610BD49
:109CD0003507100330B50446ADF55F7D00F108058A
:109CE0008F4801F021FE0821284601F08DFE6846CC
:109CF00001F094FE6846082101F094FE694628466A
:109D000001F032FE04F54F714122684601F098FEE1
:109D1000684601F091FE94F85C0394F85B2394F894
:109D20003D1394F83E3384F83D0384F83E2394F8C1
:109D30005A0394F8592394F83F5384F85C1384F839
:109D40005B3394F8401394F8413384F83F0384F86C
:109D5000402394F8580394F8572384F85A5384F80E
:109D6000591394F8425394F8431384F8410384F848
:109D7000583394F8560394F8443384F8422394F803
:109D8000552384F8575384F8430384F8442384F814
:109D9000553384F8561394F8451394F8540394F803
:109DA000532394F8463384F8450384F8462394F803
:109DB000520394F8512394F8475384F8541384F8C9
:109DC000533394F8481394F8493384F8470384F8DC
:109DD000482394F8500394F84F2384F8525384F89E
:109DE000511394F84A5394F84B1384F8490384F8B8
:109DF000503394F84E0394F84C3384F84A2394F883
:109E00004D2384F84F5384F84B0384F84C2384F893
:109E10004D3384F84E1394F85D1394F87C0394F852
:109E20007B2394F85E3384F85D0384F85E2394F812
:109E30007A0394F8792394F85F5384F87C1384F8B8
:109E40007B3394F8601394F8613384F85F0384F8EB
:109E5000602394F8780394F8772384F87A5384F88D
:109E6000791394F8625394F8631384F8610384F8C7
:109E7000783394F8760394F8643384F8622394F882
:109E8000752384F8775384F8630384F8642384F893
:109E9000753384F8761394F8651394F8740394F882
:109EA000732394F8663384F8650384F8662394F882
:109EB000720394F8712394F8675384F8741384F848
:109EC000733394F8681394F8693384F8670384F85B
:109ED000682394F8700394F86F2384F8725384F81D
:109EE000711394F86A5394F86B1384F8690384F837
:109EF000703394F86E0394F86C3384F86A2394F802
:109F00006D2384F86B03012084F86F5384F86E137B
:109F100084F86C2384F86D330DF55F7D30BD00BF90
:109F2000B86D00200B7803F0FE03042B01D0002055
:109F3000704770B515468CB00C462022002104A84D
:109F400014F01EFF28686968AA68EB686D460FC5A3
:109F50009DF800109DF80F209DF801609DF80E50AF
:109F60009DF802008DF80F1023469DF80D108DF816
:109F700000209DF803208DF80E608DF801509DF8AB
:109F80000C609DF804508DF80D008DF802109DF8BE
:109F90000B009DF805108DF80C209DF80A208DF817
:109FA00003608DF80B508DF804008DF805208DF8B6
:109FB0000A109DF8061033F8042FADF810209B7896
:109FC0009DF809209DF81D009DF810609DF81F5018
:109FD0008DF809108DF806209DF811109DF81E20AF
:109FE0008DF81D309DF807308DF812008DF81F6038
:109FF0009DF808009DF813608DF810508DF81E1024
:10A000009DF81C509DF814108DF811208DF8083023
:10A010009DF81B209DF81A308DF807008DF81C6004
:10A020008DF813509DF815608DF81B108DF81420D5
:10A0300068468DF815309DF819109DF817209DF889
:10A0400018309DF816508DF818208DF816108DF8E0
:10A0500017308DF81A608DF81950FFF7F9FD627806
:10A060009DF82F309DF82E009DF82D108DF82100C1
:10A070009A428DF8221004F1010404D0012080F0EE
:10A0800001000CB070BD6278C3B29A4204F10104C1
:10A09000F4D16278CBB29A42F0D10020EFE700BF52
:10A0A00008B5137CDB0758BF1C32084602F11201C9
:10A0B000FFF7D6FDB0FA80F0400908BDF0B58F88F3
:10A0C0000E46ADF56B7D04463946464801F064F80E
:10A0D0003388133B0546072B2FD8DFE813F03E00EB
:10A0E0005F006D002E002803870008003100337ADE
:10A0F000B3B9737B9B070ED4294602A8FFF700F97A
:10A100000299BDF80C209DF80E3084F80C34C4F888
:10A110000614A4F80A24284604F2BE31FFF71CF9FD
:10A12000D4F818244AB1307A0D900223002100930C
:10A1300008460CAB0C970FF007F90DF56B7DF0BDE1
:10A14000D4F81C24002AF8D00123002100930846EB
:10A150000CAB0C970FF0F8F8EFE704F2BE3304F203
:10A16000DA320C9304F2F63300251092119304F2C4
:10A170003D3204F27E330F921393CDE90D551295C3
:10A18000FFF7B8F801280CBF22462A460CAB294637
:10A190003846FFF75FFD0DF56B7DF0BD0CA9FFF7AD
:10A1A000F1F80346002800F0D2820CA938460023BB
:10A1B0001AAAFFF757FDC0E7D4F810140029BCD045
:10A1C000B37B094A03F001030F930423CDE90C1775
:10A1D00006F10800009306210CAB0E900FF0B4F8C6
:10A1E000ABE700BF2C660020699C020094F87E3328
:10A1F00094F89D2394F87FC394F89C6394F880535B
:10A2000094F89B0384F89D33042194F89A3384F8DE
:10A210007D1384F87E2394F8811394F8822384F8C4
:10A220009CC384F87F6394F899C394F8836384F89B
:10A230009B5384F8800394F8985394F8840384F82B
:10A240009A1384F8813394F8971394F8853384F83B
:10A25000992394F8962384F882C384F8986384F849
:10A26000835384F8970384F8841384F8852384F84F
:10A27000963394F8862394F8953394F887C394F82A
:10A28000946394F8885394F8930394F8891384F8AA
:10A29000952384F8863394F8922394F88A3384F8CB
:10A2A00094C384F8876394F891C394F88B6384F81B
:10A2B000935384F8880394F8905394F88C0384F8AB
:10A2C000921384F8892394F88F1394F88D2384F8DB
:10A2D000913394F88E3384F88AC384F8906384F8B9
:10A2E0008B5384F88F0384F88C1384F88D3384F8AF
:10A2F0008E2394F89E2394F8BD3394F89FC394F86A
:10A30000BC6394F8A05394F8BB0394F8A11384F8A9
:10A31000BD2384F89E3394F8BA2394F8A23384F8CA
:10A32000BCC384F89F6394F8B9C394F8A36384F81A
:10A33000BB5384F8A00394F8B85394F8A40384F8AA
:10A34000BA1384F8A12394F8B71394F8A52384F8DA
:10A35000B93394F8B63384F8A2C384F8B86384F8A8
:10A36000A35384F8A41384F8B62384F8A53384F89F
:10A37000B70394F8A60394F8B51394F8A72394F8B8
:10A38000B43394F8A86394F8B35384F8B50384F80D
:10A39000A61394F8A90394F8B21384F8B42384F8AC
:10A3A000A73394F8AA2394F8B13384F8B36384F8FC
:10A3B000A85394F8AB6394F8B05384F8B20384F8CC
:10A3C000A91394F8AC0394F8AF1384F8B12384F87C
:10A3D000AA3394F8AD2394F8AE3384F8AD3384F8FF
:10A3E000AE2384F8B06384F8AB5384F8AF0384F8E9
:10A3F000AC130CA801F012FB0CA8082101F012FB11
:10A4000004F27D310CA8412201F02CFB0CA904AA16
:10A41000202304F1080001F0D5FA0CA801F00CFB90
:10A420009DF810109DF82F009DF811309DF82E20FA
:10A430009DF812609DF82D508DF810008DF82F10AA
:10A440009DF813009DF82C108DF811208DF82E30FA
:10A450009DF814209DF82B308DF812508DF82D604A
:10A460009DF815509DF82A608DF813108DF82C007A
:10A470009DF816109DF829008DF814308DF82B20CA
:10A480009DF817309DF828208DF815608DF82A501A
:10A490008DF816008DF817208DF828308DF82910CA
:10A4A0009DF818109DF827009DF819309DF826207A
:10A4B0009DF81A609DF825508DF818008DF827102A
:10A4C0009DF81B009DF824108DF819208DF826307A
:10A4D0009DF81C209DF823308DF81A508DF82560CA
:10A4E0009DF81D509DF822608DF81B108DF82400FA
:10A4F0009DF81E109DF821008DF81C308DF823204A
:10A500009DF81F309DF820208DF81D608DF8225099
:10A510008DF821108DF81F208DF820308DF81E0049
:10A5200094F87E0394F89D1394F87F2394F89C3359
:10A5300094F8806394F89B5384F89D0384F87E1309
:10A5400094F8810394F89A1384F89C2384F87F3359
:10A5500094F8822394F8993384F89B6384F88053A9
:10A5600094F8836394F8985384F89A0384F88113D9
:10A5700094F8840394F8971384F8992384F8823329
:10A5800094F8852394F8963384F8986384F8835379
:10A5900084F8841384F8962384F8853384F8970329
:10A5A00094F8860394F8951394F8872394F89433D9
:10A5B00094F8886394F8935384F8950384F8861389
:10A5C00094F8890394F8921384F8942384F88733D9
:10A5D00094F88A2394F8913384F8936384F8885329
:10A5E00094F88B6394F8905384F8920384F8891359
:10A5F00094F88C0394F88F1384F8912384F88A33A9
:10A6000094F88D2394F88E3384F8906384F88B53F8
:10A6100084F88C1384F88E2384F88D3384F88F03A8
:10A6200094F89E0394F8BD1394F89F2394F8BC33D8
:10A6300094F8A06394F8BB5384F8BD0384F89E1388
:10A6400094F8A10394F8BA1384F8BC2384F89F33D8
:10A6500094F8A22394F8B93384F8BB6384F8A05328
:10A6600094F8A36394F8B85384F8BA0384F8A11358
:10A6700094F8A40394F8B71384F8B92384F8A233A8
:10A6800094F8A52394F8B63384F8B86384F8B70334
:10A6900084F8A41384F8B62384F8A53384F8A3536C
:10A6A00094F8A65394F8A72394F8B43394F8B50318
:10A6B00094F8A81394F8B36384F8B55384F8B423DA
:10A6C00094F8A95394F8AA2384F8A73394F8B133E3
:10A6D00094F8B0C384F8A60384F8B31394F8B203D3
:10A6E00094F8AB1384F8A86384F8B25394F8AC637D
:10A6F00094F8AF5384F8B12384F8AA3394F8AD23C7
:10A7000094F8AE3384F8A90384F8B013384604A94A
:10A7100084F8ABC384F8AF6384F8AC5384F8AE23F9
:10A7200084F8AD33FFF79AFA0DF56B7DF0BDD4F8E0
:10A730001424002A3FF401AD0223002100930C925F
:10A740000CAB064A0D9708460EF0FEFDF5E43846C0
:10A750001A461946FFF786FAEFE400BF8D9C020007
:10A76000A8DF7047704700BF30B5044683B008309B
:10A7700000F05CF804F10C010DF106020120FFF776
:10A78000EFFF054628B9044B04481C602146FFF73B
:10A79000C9F8284603B030BD286600206C6A002046
:10A7A00030B44C68C460D1E90241054A054D0260ED
:10A7B000054A8560C0E90441426030BC704700BF73
:10A7C000281F0400401F04000000111183790B7042
:10A7D000C3791370704700BF62DF704763DF704753
:10A7E000704700BF10B504460EF010FB204610BDA8
:10A7F00010B4054C8180002201210460C0E90222CE
:10A800005DF8044B81717047401F04008379012B70
:10A810000AD0826832B9C26822B9012B8CBF80206D
:10A820000020704780207047102070472DE9F047C6
:10A83000857982B0002D47D1C7680646002F47D0E2
:10A8400010200BF0BBFF8246384615F0A8F9441ED5
:10A8500030B3DFF88490A84604E00134023C1FD4F2
:10A86000102D1DD017F804C0BCF12D0F07EB04020A
:10A87000F3D099F80030ADF805808DF8043012F867
:10A88000013C8DF804301022002101A88DF805C08C
:10A8900015F040FA6B1C023C0AF80500DDB2DFD56A
:10A8A000C6F808A0BAF1000F0ED0B11D5046FFF750
:10A8B00093FFB168321D1020FFF790FFB0FA80F0CF
:10A8C000400902B0BDE8F087012002B0BDE8F08782
:10A8D000D0F808A0E6E700BF341F04004DDF704742
:10A8E0004EDF70474FDF704750DF70474BDF7047D8
:10A8F00010DF70477CDF70477DDF704760DF704797
:10A9000069DF704761DF704766DF704767DF704758
:10A91000704700BF0C200EF07DBE00BF30B5224C4A
:10A92000224D83B0D4F828074FF0FF310CF02CFCF7
:10A930000028F7D0C5B101A8FFF7D8FF0528F1D04E
:10A940000028F8D1019B032B1BD8012BF3D9184603
:10A950000BF034FCEFE70A2B04D0092B21D00B2B92
:10A9600002D1012005F002FB01A8FFF7BFFF052877
:10A97000D8D00028F8D1019BA3F10902022AF3D80C
:10A98000E9E7A3F10902022AD5D80A2B04D0092B42
:10A9900005D00B2BCFD1012005F0E8FACBE7022040
:10A9A000FAE70220DEE700BF2C660020BD6103004D
:10A9B0002DE9F04F2DED028B4FF4FA7089B00BF0BA
:10A9C000FDFEB24E00F1080308EE103A054606F50A
:10A9D000F06706F5C86AD6F824074FF0FF310CF08F
:10A9E000D3FB0028F7D04FF4FA730DF11601284677
:10A9F000ADF81630FFF786FF10B10528F3D1EAE76E
:10AA0000B5F80490B9F1130F00F2398106EB890310
:10AA1000D3F834473CB129462046FEF7D5FC9C4884
:10AA20002946FFF74BFB2B88013B1B2B5AD8DFE84D
:10AA300013F01601590059005900590059005900E6
:10AA4000590059005900590059005900590059003E
:10AA5000B4001C0059005900590059005900590010
:10AA60005900590059005900A200DFF838824FF010
:10AA7000000B58F8040F30B1FEF732FC18B10BF19F
:10AA8000010B5FFA8BFBB845F3D1BBF1000F06D188
:10AA900096F830371BB159460C200EF09DFD20462C
:10AAA000FEF728FC012800F0EC80F26962B1022375
:10AAB000002195F808C00093084606ABCDF8189021
:10AAC000CDF81CC00EF040FC09F5E67806EB8803D3
:10AAD000586810B103685B68984706EB8808002344
:10AAE000C8F8043029465046FDF744FE6948294617
:10AAF000FEF7E4FFB6F832374B452B8800F0B48000
:10AB0000102B1ED02CB32046FEF7F4FB012803D1F6
:10AB10005E482946FEF750FF2046FEF7EBFB022871
:10AB20001BD05D48FEF73AFD00BB5C482946FEF7A6
:10AB3000CDFDD6F88837002B3FF455AF284698470F
:10AB400051E7EB7B012BDDD1AB88A6F83237002C27
:10AB5000D9D14E482946FEF72FFF51482946FDF727
:10AB6000AFFE4D48FEF71AFD0028DED04A482946C0
:10AB7000FEF716FDD9E7D6F88427002AB2D00223C3
:10AB8000002195F908C00093084606ABCDF818904F
:10AB9000CDF81CC00EF0D8FBA4E74FF00008D6F8A3
:10ABA0002C07CDF800804346424603213D4C0DF072
:10ABB00065FE54F8040F30B1FEF792FB18B108F1AE
:10ABC00001085FFA88F8BC42F3D196F830376BB1D0
:10ABD000B8F1000118BF01210C200EF0FDFC96F821
:10ABE00030371BB101210C200EF0F6FC09F5E67898
:10ABF00006EB8804606820B103685B68984700230F
:10AC00006360EB7B012B0BBF96F8123796F8183771
:10AC100096F8134796F81947039334200EF0F4F88A
:10AC200006EB8808039B009418EE102A0446494658
:10AC3000FEF722FB2046C8F80440FEF75BFB012824
:10AC400032D0B269002A3FF44DAF012300210093B6
:10AC5000084606ABCDF818900EF076FB42E70021CF
:10AC60004846FFF751FE3DE7102B3FF46AAF112B2A
:10AC70007FF448AF4FF6FF73A6F8323742E7044639
:10AC8000D1E6F268002A7FF412AF1DE72C6600209F
:10AC90004C660020C86C00201C6D00206C6A0020EF
:10ACA0003C6600205C6D0020B268002A3FF41AAFB9
:10ACB0000021009006AB0846CDF818900EF044FB3A
:10ACC00010E700BF38B50446FEF73CFE04F1100063
:10ACD000FDF7C2FD04F12000FEF7E6FF04F58860F1
:10ACE000FEF796FC04F5C860FDF76AFC04F27C6090
:10ACF000FDF70AFC04F29C60FEF762FE04F5DE60DC
:10AD0000FEF732FC4FF480530025C4F8083716488C
:10AD10001649174AC4F80C0740F20113C4F810177B
:10AD2000C4F81427A4F81837A4F81A5704F234709A
:10AD30002946502214F024F801224FF6FF73A4F89C
:10AD40001C5784F81E57C4F82457C4F82857C4F871
:10AD50002C57C4F88857C4F8845784F83027A4F8CF
:10AD60003237204638BD00BF010A17000300010139
:10AD700017000300F0B5BF4E80F81C178DB080F8A7
:10AD80001D2704460EF0BEF80EF0C4F80EF082F84F
:10AD90003369B949039303A8FFF7AAFD18B1002549
:10ADA00028460DB0F0BD0120FFF79AFD0120FFF706
:10ADB00095FD0120FFF796FD09A8FFF795FD099B7A
:10ADC0009B0705D5AD4BD3F80435002B00F0FE8072
:10ADD0000023AB4A94F80D57049209A90120CDE94C
:10ADE00009330B938DF82450FFF78AFD0028D6D144
:10ADF00094F81D370B90CDE90900181E18BF0120EB
:10AE000094F81C578DF82700049A8DF8263009A96C
:10AE100040208DF82550FFF773FD0028BFD194F82E
:10AE20000C170990034661F30003CDE90A00049A68
:10AE30008DF8243009A9A020FFF762FD0028AED1CB
:10AE4000D4F808370A900B90049A099309A9A12015
:10AE5000FFF756FD0028A2D194F81C37002B40F0D4
:10AE6000B98094F81D37002B48D00023B4F814772C
:10AE7000049A0993022509A92320CDE90A338DF804
:10AE80002450ADF82670FFF73BFD002887D1CDE9AF
:10AE9000090094F81D77B4F816370B90049A8DF8D2
:10AEA000245009A920208DF82670ADF82830FFF72E
:10AEB00027FD00287FF473AF0990CDE90A0094F8CC
:10AEC0001837049A8DF8245009A922208DF82630CD
:10AED000FFF716FD00287FF462AFCDE9090094F872
:10AEE00019370B90049A8DF8245009A921208DF868
:10AEF0002630FFF705FD00287FF451AF04A8FFF7C7
:10AF0000FDFC00287FF44BAFCDE9070040F00103C2
:10AF100007A902208DF81C30FFF7F8FC00287FF409
:10AF20003EAF2046FEF71CFD054600283FF437AF34
:10AF300004F12000FEF7CEFE337D52498DF8083033
:10AF40000D2202A8FFF7D6FC00287FF428AF94F862
:10AF50001D37002B40F088800322002101200BF0D8
:10AF6000AFFCC4F8240700283FF419AF05AB032653
:10AF7000CDE900634449454800234FF4A0620CF03A
:10AF80001DFC3246002101200BF09AFCC4F8280772
:10AF900000283FF404AF06ABCDE900633C493D48CF
:10AFA0000023C8220CF00AFC3B4B4FF480021A60CD
:10AFB0003A4B00930023184601224FF480710DF0A4
:10AFC00007FCC4F82C0700F0C9F9E9E6022004F0F8
:10AFD000CDFFFDE60990CDE90A00B4F80E37049ADA
:10AFE000ADF82630012509A923208DF82450FFF75C
:10AFF00087FC00287FF4D3AECDE9090094F81C77D4
:10B00000B4F810370B90049A8DF8245009A9202029
:10B010008DF82670ADF82830FFF772FC00287FF419
:10B02000BEAE0990CDE90A0094F81237049A8DF863
:10B03000245009A922208DF82630FFF761FC002852
:10B040007FF4ADAECDE9090094F813370B90049A64
:10B050008DF8245009A921208DF82630FFF750FCE7
:10B0600000283FF4FEAE9AE604F11000FDF702FC62
:10B0700072E700BF9C1F040011A90200007002408B
:10B0800000600020841F0400941F0400B1A9020086
:10B09000981F04001DA9020000E100E015A90200AC
:10B0A00000B5084B85B01B7D019108468DF80C302A
:10B0B00014F075FD019982B203A8FFF71BFC05B0DF
:10B0C0005DF804FB9C1F040000B583B008460DF139
:10B0D0000601ADF80620FFF70FFC20B99DF8060029
:10B0E00003B05DF804FB002003B05DF804FB00BF73
:10B0F00090F91E07704700BF70B5044682B0D0F8C3
:10B100002C070D460DF0E6FB4FF47A72064600233D
:10B11000A90DA80213F0E2FB002302460421D4F893
:10B120002C0700930DF0AAFB0EB102B070BD009683
:10B13000D4F82C073346324603210DF09FFB02B0B2
:10B1400070BD00BF70B500F5E66400F5F06500263F
:10B1500054F8040F20B1FEF7C3F808B10136F6B277
:10B16000AC42F5D1304670BD132906D800EB810101
:10B17000D1F8340708B1FEF7B3B80020704700BF1C
:10B18000B0F83207704700BF01290CBFB0F80E07B6
:10B19000B0F81407704700BF13299ABF00EB810174
:10B1A000D1F834070020704710B5064C0021D4F8C0
:10B1B00028070BF05DFED4F824070021BDE81040FD
:10B1C0000BF056BE2C66002090F8303703B970475C
:10B1D00010B582B0D0F82C470CF0E0FC00230246FA
:10B1E0000093204601210DF049FB02B010BD00BFC5
:10B1F000F0B583B0002405462346D0F82C07009410
:10B20000224603210DF03AFB05F5E66605F5F067E9
:10B2100056F8040F20B1FEF763F808B10134E4B228
:10B22000BE42F5D195F8303743B1211E18BF012138
:10B230000C2003B0BDE8F0400EF0CEB903B0F0BD75
:10B240000148FFF73FBD00BF2C660020002201210E
:10B250004270C0E901220170C2818281704700BF43
:10B2600010B50446017001B110BD0A200BF06AFB55
:10B27000606010BD037810B5044643B1002301227D
:10B280006370C4E90133E381A381227010BD40687B
:10B290000CF0F6F8F2E700BF002381608281C381E1
:10B2A000704700BF037870B504460D46B3B94668D1
:10B2B000012363704FF47A720023A802A90D13F0E2
:10B2C0000DFB014630460BF05FFF98B9237800264E
:10B2D0004FF0FF356670A3B9284670BD03220021E8
:10B2E00001200BF0EDFA064660600028E0D14FF037
:10B2F000FF35F1E7E58923780026ADB26670002BB3
:10B30000EAD060680CF0BCF86660284670BD00BFEB
:10B310004078704738B504468089824228BF02468B
:10B32000154619B1A06813F003FDA089E389A2684E
:10B3300015FA83F3401B9BB22A44A081E381A260EB
:10B34000284638BD406820B100231A4619460BF044
:10B350002BBB7047B1DF7047B2DF704708B50F48AD
:10B360000AF0BAFD0E490D4805F09AF828B10D49CA
:10B370000A4805F095F850B108BD0949074805F09D
:10B38000ABF80849054805F08BF80028F4D1BDE872
:10B3900008400449014805F09FB800BFEC7A00203E
:10B3A000C41F0400D81F040070B586B00E460323E6
:10B3B0000021054614460093044A0496084603AB50
:10B3C000039505940DF0C0FF06B070BD95B6020060
:10B3D00070B586B00323144606460D46009310460A
:10B3E00003AB044A05940721CDE903650DF0ACFFDA
:10B3F00006B070BDC5B7020030B50A4691B0897974
:10B400005379039111790293D378094D094C019135
:10B4100000939378527801280CBF2946214604A84E
:10B4200014F068FB04A9044805F0AEF811B030BD73
:10B43000EC1F04001C200400EC7A00202DE9F043EE
:10B44000D1B00B78032B04AF0D460446904668D963
:10B450005A08022A5ED14F4A4F49504BDFF84891B3
:10B46000012818BF11460022381D05F065FA4B4926
:10B4700007F1680005F096F907F1CC0611E00246E5
:10B48000414607F1680005F07FFA08F138022946C5
:10B490004846FEF747FD044678BB07F1680005F013
:10B4A000E9FA0022391D304605F016FB07F1D000FD
:10B4B0000DC8D7F8DC10D7F8E4407B67D7F8E83040
:10B4C00097F8E0C0F8663A67B967412207F1EC01E6
:10B4D00007F18800C7E9204387F87CC013F028FCF7
:10B4E00007F1680005F0F2FA044607F1680044B17C
:10B4F00005F0F8F85028D0D1C1E707F1680005F051
:10B50000B9FA381D05F0B6FA204607F59A77BD4618
:10B51000BDE8F0830024204607F59A77BD46BDE8D4
:10B52000F083E9468CB08979AB786A7803916979C0
:10B530000291297901911A4E1A49E878009004ADD8
:10B54000012C08BF3146284607F1CC0614F0D2FA88
:10B550001249304605F026F929463046002205F00A
:10B56000CFF9044650B90024304605F083FA20464E
:10B57000CD4607F59A77BD46BDE8F083304605F025
:10B58000B1F8021EEFDD92B24146304605F0FCF9FB
:10B59000EAE700BFD81F0400C41F0400EC7A0020B3
:10B5A000EC1F04001C2004004C660020F0B5ADB078
:10B5B00095799378344E14465278039565790295BF
:10B5C00094F804C0CDF804C0304DE478009404AF82
:10B5D0000C4601280CBF3146294607F10C0014F037
:10B5E00089FA2B4B07F10C0107F13C00002205F012
:10B5F000A3F907F13C0005F069FA40B9002407F10E
:10B600003C0005F037FA2046A437BD46F0BD07F1EF
:10B610003C0005F067F8051E08DD07F13C0005F069
:10B62000F1F9291807F13C0005F0CEF907F13C00CB
:10B6300005F058F8051E08DD07F13C0005F0E2F9B9
:10B64000291807F13C0005F0BFF907F13C0005F0AF
:10B6500049F80028D2DDC31D23F007036D46ADEB8A
:10B66000030D82B204A907F13C00C7E9001205F0FE
:10B670008BF92046D7E900120323FFF76BFEB0FADF
:10B6800080F46409AD46BAE7EC1F04001C200400F6
:10B69000EC7A0020F0B5B5B092F84E5092F84A30EE
:10B6A000434E144692F84920039594F84D50029564
:10B6B00094F84C50019594F84B5000950D463D4937
:10B6C00004AF012818BF314607F12C0014F012FA1C
:10B6D000394807F12C0104F0E3FE6E4600284AD1F8
:10B6E000354B07F12C0107F15C00012205F024F92C
:10B6F00007F15C0005F0EAF918B9C437B546BD4654
:10B70000F0BD502107F15C0005F01AF850222146E7
:10B7100007F15C0004F052FF0023294627487B61B3
:10B72000C7E90333C7E90633C7E90833BB62FFF74C
:10B7300033FD07F10C012022FDF7F6FE3B7B03B33E
:10B7400007F10C0014F02BFA013082B2C1B207F1FC
:10B750005C007A6004F0F4FF7A6807F10C0107F1ED
:10B760005C0004F02BFF07F15C0005F083F9C4379F
:10B77000B546BD46F0BD07F12C010F4804F004FFAB
:10B78000AEE794F8491094F84D3094F84E200391A8
:10B7900094F84A10029194F84B10019194F84C10CF
:10B7A000009107F10C00064914F0A4F9C8E700BFA6
:10B7B0001C200400EC1F0400EC7A00202C66002002
:10B7C0004C2004002DE9F043ADB00C4604AF00213D
:10B7D000032306461546204607F10A027981FFF742
:10B7E000BBFD7B89E84623B9A437C546BD46BDE805
:10B7F000F0830733DB08A8EBC3039D460DF1100966
:10B80000204607F10A0249460323FFF7A5FD044637
:10B810000028E9D1A979AB786A7803916979029116
:10B82000297901913D483E49ED780095012E08BFE8
:10B83000014607F10C0014F05DF93A4B07F10C01D9
:10B8400007F13C00012205F077F807F13C0005F014
:10B850003DF90028C8D0214607F13C0005F0B4F8B6
:10B8600007F13C0004F03EFF041E08DD07F13C0038
:10B8700005F0C8F8211807F13C0005F0A5F807F11C
:10B880003C0004F02FFF041E08DD07F13C0005F02A
:10B89000B9F8211807F13C0005F096F807F13C00D3
:10B8A00004F020FF7C8980B2A04213D0E1B207F1FE
:10B8B0003C0004F045FF2246494607F13C0004F0F5
:10B8C0007DFE07F13C0005F0D5F8A437C546BD461E
:10B8D000BDE8F083E31D6D46DB08A5EBC3039D4681
:10B8E00004A9224607F13C00796005F04DF879681B
:10B8F0007A89484613F00EFA08B9AD46E1E707F138
:10B900003C0005F09BF87B89DB43191807F13C00EC
:10B9100005F05AF8AD467C89C8E700BFEC1F04006B
:10B920001C200400EC7A002038B590F8E8500DB1E6
:10B93000284638BD012380F8E83004460FF026FC85
:10B940000028F5D12046BDE8384000F0ADB800BF72
:10B9500010B5044C204600F0A3F8002384F8E8302A
:10B9600010BD00BFB86D002003680A689A4201D07C
:10B970000020704770B5044684B04FF453700D46F4
:10B980000AF01CFF0646B0B10C4800F0ABF82346A5
:10B990000435002153F8042B0095CDE901610849D5
:10B9A0000FF08EFA044630460AF022FFB4FA84F013
:10B9B000400904B070BD002004B070BDB86D002017
:10B9C0009D9C0300F0B585B006464FF453700D46BC
:10B9D000174603930AF0F2FE78B1044600903A4607
:10B9E000281D311D03AB0FF0E9FA054620460AF089
:10B9F000FFFE15B9039805B0F0BD002005B0F0BDFD
:10BA000000220260704700BF10B5044608460FF0E0
:10BA100047FB2060003818BF012010BD00220260E3
:10BA2000704700BF10B5044608460FF039FB206090
:10BA3000003818BF012010BD00230360704700BF0D
:10BA400000B583B00430019201AB0A4604210FF027
:10BA5000B1F918B9019803B05DF804FB002003B0F8
:10BA60005DF804FBF0B5044683B04FF463700E46F6
:10BA700017460AF0A3FE054678B1019054F8040B6E
:10BA800000943A46314601230FF0D0F80446284688
:10BA90000AF0AEFEB4FA84F0400903B0F0BD00BF76
:10BAA000002280F8E420704770B590F8E4400CB1B3
:10BAB000204670BD012380F8E43005464FF4BF50A6
:10BAC0000AF07CFE06460028F2D0314628460EF0E9
:10BAD000D1FA0446B4FA84F4304664090AF088FEC8
:10BAE000204670BD704700BF0146014800F056BABD
:10BAF000C46E002038B500F097F940B10024054627
:10BB00002046013400F0C8FDE0B28542F9D838BDC6
:10BB100070B592B01D460C46164601A8422200217F
:10BB200013F02EF9412D5CD9631C0222DBB28DF893
:10BB300006408DF80E408DF8264040F6083540F25C
:10BB400002248DF81E308DF827308DF83130ADF895
:10BB500004508DF807208DF812208DF833208DF8D1
:10BB60003B20ADF80840204A069240F2012505230B
:10BB70002424ADF810508DF815308DF816400423AC
:10BB80001A4C8DF81F30012540F224628DF81C50AC
:10BB90008DF830300894ADF82420154D0A9508230F
:10BBA0004FF411640A228DF82C30ADF82E4040235A
:10BBB0008DF834200F4C8DF83C3001A9304640F20E
:10BBC000075540F209464222ADF80C60ADF83850F6
:10BBD0008DF84330CDF83F4013F0AAF8422012B060
:10BBE00070BD002012B070BD2001052424020205A2
:10BBF0000705800307058002007EFF280AD010B5E4
:10BC000000F0F8FC044608B1204610BD0DF0BCFA67
:10BC1000204610BD00207047007EFF280ED000B5E2
:10BC200083B00DF1070100F02DFD20B19DF8070054
:10BC300003B05DF804FB4FF0FF30F9E74FF0FF3041
:10BC4000704700BF007EFF280FD000B583B00122EF
:10BC50000DF1070100F0DAFC20B19DF8070003B0F8
:10BC60005DF804FB4FF0FF30F9E74FF0FF3070470D
:10BC7000007EFF2801D000F00FBD7047007EFF2836
:10BC800001D000F069BD0020704700BFF8B506463E
:10BC9000007EFF281CD017465AB10D46144600F00E
:10BCA00083FC2946224680B1307E00F039FD241AFB
:10BCB00001D13846F8BD05440DF066FA307E00F03B
:10BCC00073FC294622460028EED13F1B3846F1E797
:10BCD0000020F8BD70B50368184A5B6882B09342D3
:10BCE0008DF8071021D10546007EFF2823D000F0F3
:10BCF0005BFC0DF1070601243146224688B1287EFF
:10BD000000F00EFD241A02D1012002B070BD0644DD
:10BD10000DF03AFA287E00F047FC31462246002812
:10BD2000EDD1C4F1010002B070BD01220DF1070197
:10BD3000984702B070BD002002B070BD8DBC0200FB
:10BD400070B592B01D460C46164601A8422200214D
:10BD500013F016F8412D5CD9631C0222DBB28DF87A
:10BD600006408DF80E408DF8264040F6083540F22A
:10BD700002248DF81E308DF827308DF83130ADF863
:10BD800004508DF807208DF812208DF833208DF89F
:10BD90003B20ADF80840204A069240F201250523D9
:10BDA0002424ADF810508DF815308DF8164004237A
:10BDB0001A4C8DF81F30012540F224628DF81C507A
:10BDC0008DF830300894ADF82420154D0A950823DD
:10BDD0004FF411640A228DF82C30ADF82E40402328
:10BDE0008DF834200F4C8DF83C3001A9304640F2DC
:10BDF000075540F209464222ADF80C60ADF83850C4
:10BE00008DF84330CDF83F4012F092FF422012B03F
:10BE100070BD002012B070BD20010524240202056F
:10BE20000705800307058002014B1878704700BFA3
:10BE3000C06E0020037EFF2B02D1074B1A7802B19F
:10BE40007047064902764161012200F11001044861
:10BE50001A7000F043B800BFC06E00206C200400D0
:10BE6000C46E0020007EFF280ED000B583B000F025
:10BE70009BFB10B103B05DF804FB01900DF084F959
:10BE8000019803B05DF804FB0020704701B900B1D0
:10BE9000704700B583B0694600F09CFB009BB3F58A
:10BEA000966F02D003B05DF804FB00F029FBF9E7C0
:10BEB00030B4084B084AFF2002F108054FF47A74A9
:10BEC0000021303218761D609C601A6130BC5960C8
:10BED00059617047A46E00207C200400F8B5054627
:10BEE000B0F818016C69B5F81A310A680E460444B6
:10BEF0001B1A176895F81C119BB222463046B847AA
:10BF000050B3221894423CD2766806E0052B25D027
:10BF100023780BB31C44A24233D96378042BF5D1A8
:10BF2000E378002BF4D195F81C11013185F81C1130
:10BF3000002EEDD095F840110729E9D801F1480706
:10BF400045F82760217295F84011013185F84011BC
:10BF50001E462378002BDDD10020F8BD94F9023075
:10BF6000002B08DB95F81E31591C85F81E11A178AD
:10BF70000B43A370CCE795F81D31591C85F81D11B2
:10BF8000F5E7B5F818216B69104480B2A5F81801DF
:10BF9000588095F81C211A710120F8BD2DE9F04355
:10BFA000284DDFF8B090AC4604468846BCE80F0048
:10BFB00089B003AF0FC703AE0FCE05F1140E2546AF
:10BFC0000FC59EE80700DCF800303B806B46366802
:10BFD0002E8003C36B4603CB1B4EA06104F11803F4
:10BFE0004FF4807C0125E16184F82020636140F2F8
:10BFF000EF2200231548C4F8189140F209470421A4
:10C00000A4F81CC1C4F8280184F84011A280C4F827
:10C010002C31C4F83031C4F83431C4F83831C4F8A4
:10C020003C314FF4E131C4E94876094884F81E51A7
:10C03000A571FFF7FFFE404600F050FA284609B010
:10C04000BDE8F083CC200400B0200400841F04006D
:10C05000A46E0020090000012DE9F04F04468BB0CA
:10C06000002900F09180032900F09C8090F8403175
:10C070008B4240F2CB80483100F5A27550F8216028
:10C080003278002A00F0E78000231946374603E0A3
:10C090000131725C7718CAB102F14000C0B20128C8
:10C0A000F6D9F42AF4D8100618D40120A2F558477E
:10C0B000B7F5006FECD30144202B00F0C98025F8C0
:10C0C0001320725C01337718002AE5D1DBB201330B
:10C0D0005B0043F4407304F5A17C5DE002F0E000F6
:10C0E000C02800F0A18002F0F000E02800F091806C
:10C0F00002F0F800F028CBD102F007024FF0040E56
:10C10000787800F0C00CBCF1800FC1D197F802C064
:10C110000CF0C00800F03F00B8F1800F40EA821236
:10C12000B6D10CF03F0CBEF1030F4CEA821275D071
:10C13000F87800F0C007802FAAD100F03F0040EA55
:10C140008212A2F58030B0F5801F38BF4FF0040E88
:10C150009ED2A2F55840B0F5006F99D3B2F5803F5A
:10C160007144A9D31E2BB1DCA2F580325800970A86
:10C170002844C2F30902A7F52057A2F5105225F86A
:10C1800013704280023384E7D0F82031A0F84431A4
:10C1900000F5A17C4FF44173A4F8423160460BB026
:10C1A000BDE8F08F02A800F0ADF904F5A17C019084
:10C1B00020B300F1FF3B5FFA8BF3284F04F1040B2F
:10C1C0000DF1080A0BEB830BA64606AE97E80F00AD
:10C1D0001AF8018B86E80F0008F00F090AADA94490
:10C1E00005EB181819F8109C18F8103CAEF8469199
:10C1F000AEF844310EF1040EDE45E7D1019B5B0041
:10C20000DBB201335B0043F44073C5E74FF0000C31
:10C21000C4E702F00F024FF0030E71E7A2F50060D1
:10C22000B0F5784F95D333E7787800F0C007802FCA
:10C2300002F01F027FF42CAF00F03F0040EA8212B0
:10C24000A2F18000B0F5F06FBFF422AF02202DE71D
:10C2500040F242333FE740F202333CE7B8200400AB
:10C2600000487047C46E0020014B5869704700BFFA
:10C27000C46E00200A4601460148FFF7EDBE00BF2C
:10C28000C46E0020024B186800B10069704700BFFF
:10C290004870002030B40848BDF80850046844B124
:10C2A000646934B10846A44611461A462B4630BC90
:10C2B0006047002030BC70474870002030B4084808
:10C2C000BDF80850046844B1A46934B10846A446D6
:10C2D00011461A462B4630BC604730BC704700BF41
:10C2E00048700020024B186808B190F85000704761
:10C2F0004C7000202DE9F047244C2568002D42D0D9
:10C300001F4600EBC00305EB83030446D3F818A0D7
:10C3100089469046C600BAF1000F30D0504613F05F
:10C320003EFC0828024628BF0822344405EB840559
:10C33000D5E90764DFF85CC0154B002E08BF6646E0
:10C3400051464846002C08BF1C4612F0F1FC30460E
:10C3500013F025FC10280246314628BF1022404623
:10C3600012F0E6FC204613F01AFC0428024621468F
:10C37000384628BF0422BDE8F04712F0D9BCDFF8E8
:10C3800018A00822D1E7BDE8F08700BF4C7000205C
:10C3900008210400F8200400EC200400F8B50B4F3D
:10C3A0003B688BB100EBC00503EB850504466A6969
:10C3B000C6001AB190473B6885F82A00344403EB65
:10C3C000840393F82A00F8BD1846F8BD4C7000208D
:10C3D000074B1B685BB100EBC00003EB800010B49F
:10C3E000038D446A0C605DF8044B138070477047FE
:10C3F0004C7000200A781E2A01D10020704710B529
:10C4000020221C460521002300F078FF204610BDA5
:10C4100030B4094C029A256855B1044604EBC404B3
:10C4200005EB840408461946A3680BB130BC1847D5
:10C430004FF0FF3030BC70474C70002030B4094CD6
:10C44000029A256855B1044604EBC40405EB840444
:10C4500008461946E3680BB130BC18474FF0FF306F
:10C4600030BC70474C700020054B1B6833B100EBAB
:10C47000C00003EB8000036903B11847704700BF99
:10C480004C70002000B5104B402283B083F8272366
:10C4900003F030FF4FF080430024D3F838548DF878
:10C4A000004068460CF0CAFC084B019301A80CF050
:10C4B00015FD0CF01FFDEB0702D401F009FFFCE7AE
:10C4C000204603F053FDF8E700E100E0D1C402008C
:10C4D00003F04CBD002003F029BA00BF00B50023D3
:10C4E00083B00322CDE9002303490448C8220BF09E
:10C4F00065F903B05DF804FB0C21040085C402005B
:10C500000CF0DEBF4FF08052536E1BBA0360136E07
:10C510001BBA43600820704700487047142104008C
:10C5200070B51F4D2B68B3B199B91478C4F3411499
:10C53000012C0BD0022C07D15478012C0DD0022CE9
:10C5400007D19388072B21D0084670BD5178222946
:10C550000CD0012070BD184670BDDC69F4B12378A1
:10C5600011462246BDE8704002F070BE5188003985
:10C5700018BF01211976114602F04EFE2A68136A8F
:10C58000002BE6D0107E9847204670BD054C114622
:10C5900023892246BDE8704002F058BE204670BD97
:10C5A000507000200460002010B5044601F0ECFD3E
:10C5B00008B9002010BD01F0EFFD0028F9D10448B2
:10C5C0004FF45A7303FB0400007900F0010010BD22
:10C5D00054700020064B4FF45A7202FB003050F8A2
:10C5E000063F0B60838882798A718B80704700BF19
:10C5F0005470002008B5044B4FF45A7202FB00300F
:10C60000103001F025FC08BD547000202DE9F041E8
:10C610004FF45A7505FB00F5194F05F110043C4421
:10C6200092B2204601F040FC0646204601F02AFC6A
:10C630003F2802D83046BDE8F08107EB050800200E
:10C6400098F8031002F01EFD0028F3D0204601F0F8
:10C6500019FC3F280BD905F53A7298F803103A44B3
:10C660004023002002F072FD3046BDE8F08198F8CA
:10C670000310002002F03EFD3046BDE8F08100BF0F
:10C6800054700020034B4FF45A7202FB00301030FC
:10C6900001F07CBC547000202DE9F041044601F00B
:10C6A00073FD10B90020BDE8F08101F075FD06466C
:10C6B0000028F7D14FF45A71DFF8608001FB04F4D1
:10C6C00004F12C054544284601F0C2FB0028E9D0BE
:10C6D00008EB04073046B97802F0D4FC0028E1D01A
:10C6E00004F54A74444428462146402201F0DCFB0C
:10C6F000054660B1B978224630462B4602F026FD49
:10C7000040B9054B1B68DB07CCD500BECBE7B97839
:10C7100002F0F0FC2846C6E7F0ED00E0547000207F
:10C7200038B50C4B4FF45A7404FB00342C3492B2DD
:10C730000546204601F06AFC034620461C4601F0EF
:10C7400087FB3F2801D8204638BD2846FFF7A4FFC5
:10C75000204638BD5470002008B5044B4FF45A727F
:10C7600002FB00302C3001F08DFB08BD547000201E
:10C77000F0B51C4C83B000214FF45A7220460125BD
:10C780000E4612F0FDFAFF234FF4424204F1480135
:10C790006371E2802B460827009604F110004FF4E5
:10C7A000807227732581668101F016FB2B464FF4BA
:10C7B000807204F5A471009504F12C0001F00CFBCB
:10C7C00004F5127128460AF09FFA04F52671034613
:10C7D0002846C4E909630AF097FAC4E9100603B0D1
:10C7E000F0BD00BF5470002010B5094B002203F1CA
:10C7F0002C0403F110001A601A7101F07DFC204630
:10C8000001F07AFC20460121BDE8104001F09CBCFB
:10C81000547000202DE9F0414B79022B82B002D1F7
:10C820008B79022B04D00025284602B0BDE8F081A8
:10C83000314FBB782BB1314B1B68DB07F3D500BE02
:10C84000F1E78B783B700C780C440646617824291C
:10C850004FF009050BD1082A02D80FE0AA420DD3E8
:10C8600023781C442B44617824299DB2F6D00529F5
:10C870001BD0042902D163790A2B28D0204801F06B
:10C8800001FB3F28D0D9F978002002F0FBFB0028FB
:10C89000CAD01B4801F0F6FA3F28F97813D9194A93
:10C8A0004023002002F052FCBEE72146304602F051
:10C8B000C9FB0028BFD0A3787B7023781C442B448D
:10C8C00061789DB2D5E7002002F014FCACE70E4A77
:10C8D00094F800800192022301320092304604EB6A
:10C8E00008011A4602F03AFB0028A4D005F10E0315
:10C8F00018FA83F39DB2C1E754700020F0ED00E018
:10C90000647000203C7300205670002038B5137806
:10C9100003F06003202B0CD1264C938825789D4290
:10C9200007D15378203B032B03D8DFE803F0091528
:10C930001E04002038BD71B3022931D0012038BD5A
:10C9400061B10229FAD11C4B002BF7D01B49002002
:10C95000AFF30080012038BD0029EFD11146072335
:10C96000164A02F073FC012038BDA1B10229E5D1BD
:10C970005588257105F00104114884F0010101F08A
:10C98000E3FB104B002BD9D0C5F340022146002019
:10C99000FFF77CFAD2E7114602F03EFC012038BDD9
:10C9A000094B002BCAD051880020AFF30080012032
:10C9B00038BD00BF54700020000000005A700020F5
:10C9C000807000208DBE0200000000002DE9F047BD
:10C9D000574DEA788A420C4607461E465CD19AB209
:10C9E00005F53A7105F1100001F010FB514BD3B180
:10C9F0006B79FF2B17D0B6B105F2E72808EB060AD2
:10CA0000A8F2D72902E0D0450DD06B7918F8012F94
:10CA10009A42F8D1484601F02BFA0028F3D16979FF
:10CA2000AFF30080EFE7444B23B1444801F020FA14
:10CA3000002870D0414801F025FA3F2805D9E9784F
:10CA4000002002F01FFB002858D1AB789C4203D095
:10CA500001242046BDE8F087394B13B10020AFF325
:10CA6000008001F091FB20BB364801F0F1F900286D
:10CA7000EED1002EECD016F03F06E9D1A978384669
:10CA800002F000FB04460028E2D0A978384633467D
:10CA9000324602F05BFBDCE7AB788B42DCD02A4B02
:10CAA0001C6814F00104D4D000BE00242046BDE868
:10CAB000F08701F071FB04460028D5D1214801F030
:10CAC000C7F90028D0D0A978204602F0DBFA002868
:10CAD000CAD01E494022A1F53F7001F0E5F9034696
